:020000040800F2
:10000000600900207D110008890B00088B0B000897
:100010008F0B0008930B0008970B000800000000EE
:100020000000000000000000000000009B0B000822
:100030009D0B0008000000009F0B0008A10B0008AA
:1000400097110008971100089711000897110008F0
:1000500097110008971100089711000897110008E0
:1000600097110008971100089711000897110008D0
:1000700097110008971100089711000897110008C0
:1000800097110008971100089711000897110008B0
:1000900097110008971100089711000897110008A0
:1000A0009711000897110008971100089711000890
:1000B0009711000897110008971100089711000880
:1000C0009711000897110008971100089711000870
:1000D00097110008F3100008CD0D000897110008D3
:1000E0009711000897110008971100089711000850
:1000F0009711000897110008971100089711000840
:10010000971100089711000897110008971100082F
:10011000971100089711000897110008971100081F
:10012000971100089711000897110008971100080F
:1001300000F002F800F042F80AA090E8000C8244B7
:100140008344AAF10107DA4501D100F037F8AFF294
:10015000090EBAE80F0013F0010F18BFFB1A43F0A5
:10016000010318470C2100002C210000103A24BF85
:1001700078C878C1FAD8520724BF30C830C144BF0C
:1001800004680C607047000000230024002500264E
:10019000103A28BF78C1FBD8520728BF30C148BFEA
:1001A0000B607047642901F07B86732901F0418759
:1001B000002070471FB51FBD10B510BD01F054FFE2
:1001C0001146FFF7F7FF00F043F801F072FF03B4A8
:1001D000FFF7F2FF03BC00F031FF000070B50446EA
:1001E0000D4616460821204600F06CFE642000F003
:1001F000F8FEFE48C078FE490870FC480079FD49C9
:10020000087008460078FA49097840EA0125F7485D
:100210004079F9490870F5488079F849087008462E
:100220000078F549097840EA01260020F449087071
:1002300009E00020ED49F24A12788854F04800782D
:10024000401CEF490870EE4800784028F1DB70BD93
:10025000C8B000F089FE4FF4A06000F0AFFF4FF48B
:10026000165000F0FAFE4FF4165000F0C8FD00F0F2
:1002700089FDFDE30A21E34800F024FE642000F03C
:10028000B0FEDA48C078E0490870D8480079DF4904
:10029000087008460078DC49097840EA0120DC490A
:1002A0000880D2484079DB490870D0488079DA4923
:1002B000087008460078D749097840EA0120D749F4
:1002C0000880CA48C07BD6490870C848007CD54918
:1002D0000870C648407CD4490870C448807CD34923
:1002E0000870CF4800780006CE49097840EA0140FE
:1002F000CD49097840EA0120CC4909780843CC4926
:1003000008600020BE49087009E00020B749BC4AD7
:1003100012788854BA480078401CB9490870B84827
:1003200000784028F1DB0821C24800F0CBFD6420B2
:1003300000F057FEAD48C078AD490870AB48007971
:10034000AC49087008460078A949097840EA0120BC
:10035000B9490880A5484079A7490870A348807921
:10036000A649087008460078A349097840EA0120A8
:10037000B24908800020A249087009E000209B498A
:100380009F4A127888549E480078401C9C49087007
:100390009B4800784028F1DB0821A94800F092FD35
:1003A000642000F01EFE9148C078914908708F4883
:1003B000007990490870084600788D49097840EA2C
:1003C0000120A0490880894840798B4908708748F6
:1003D00080798A490870084600788749097840EA98
:1003E00001209949088000208549087009E0002013
:1003F0007E49834A1278885481480078401C80499D
:1004000008707F4800784028F1DB08218F4800F011
:1004100059FD642000F0E5FD7448C0787449087007
:100420007248007973490870084600787049097865
:1004300040EA0120864908806C4840796E4908707E
:100440006A4880796D490870084600786A490978D9
:1004500040EA01207F49088000206949087009E0CE
:1004600000206249664A1278885465480078401C2A
:1004700063490870624800784028F1DB082176481B
:1004800000F020FD642000F0ACFD5848C0785849C9
:100490000870564800795749087008460078544952
:1004A000097840EA01206D49088050484079524956
:1004B00008704E48807951490870084600784E49C6
:1004C000097840EA01206649088000204C490870FC
:1004D00009E0002045494A4A127888544848007883
:1004E000401C47490870464800784028F1DB082145
:1004F0005C4800F0E7FC642000F073FD3B48C078E6
:100500003B490870394800793A4908700846007834
:100510003749097840EA0120534908803348407937
:1005200035490870314880793449087008460078A8
:100530003149097840EA01204C49088000203049BF
:10054000087009E0002029492D4A127888542C4867
:100550000078401C2A490870294800784028F1DBBF
:100560000821434800F0AEFC642000F03AFD1F482B
:10057000C0781F4908701D4800791E490870084658
:1005800000781B49097840EA01203A490880174859
:10059000407919490870154880791849087008464B
:1005A00000781549097840EA012033490880002085
:1005B0001349087009E000200C49114A1278885448
:1005C0000F480078401C0E4908700D4800784028FC
:1005D000F1DB0821294800F075FC642000F001FDE2
:1005E0000248C07802490870004849E0F401002040
:1005F0001400002015000020280000202900002001
:10060000000000203C00002001000020020000202B
:100610000400002006000020070000200800002041
:100620000A0000200B0000200C0000200D0000201C
:100630001000002046000020160000202A000020A4
:100640004E000020180000202C0000205600002042
:100650001A0000202E0000205E0000201C00002058
:1006600030000020660000201E0000203200002024
:100670006E000020200000203400002076000020C2
:100680000079FC49087008460078FB49097840EA7F
:100690000120FA490880FA484079FA490870F84878
:1006A0008079F949087008460078F649097840EAE7
:1006B0000120F64908800020F549087009E0002172
:1006C000EF48F34A12788154F1480078401CF04911
:1006D0000870EF4800784028F1DB0821ED4800F071
:1006E000F1FB642000F07DFCE548C078E249087029
:1006F000E3480079DF49087008460078DE49097848
:1007000040EA0120E4490880DD484079DD4908706D
:10071000DB488079DC49087008460078D9490978B7
:1007200040EA0120DD4908800020D949087009E02D
:100730000021D348D64A12788154D5480078401C0D
:10074000D3490870D24800784028F1DB0821D4480A
:1007500000F0B8FB642000F044FCC948C078C649EA
:100760000870C7480079C349087008460078C24934
:10077000097840EA0120CB490880C1484079C14945
:100780000870BF488079C049087008460078BD49A4
:10079000097840EA0120C44908800020BC4908705B
:1007A00009E00020B649BA4A12788854B84800785F
:1007B000401CB7490870B64800784028F1DBB948BA
:1007C00000880A2190FBF1F201FB1204B548008871
:1007D00090FBF1F5B448008890FBF1F201FB1206A2
:1007E000B148008890FBF1F7AB48008890FBF1F22C
:1007F00001FB1208A848008890FBF1F9A74800887F
:1008000090FBF1F201FB120AA448008890FBF1FB77
:100810009A48008890FBF1F201FB1200479097483C
:10082000008890FBF1F046909848008890FBF1F228
:1008300001FB120045909548008890FBF1F0449030
:100840009A48008890FBF1F201FB12004390974810
:10085000008890FBF1F042909548008890FBF1F2FF
:1008600001FB120041909248008890FBF1F040900B
:100870009048008890FBF1F201FB12003F908D48F8
:10088000008890FBF1F03E908B48008890FBF1F2DD
:1008900001FB12003D908848008890FBF1F03C90ED
:1008A0008648008890FBF1F201FB12003B908348E0
:1008B000008890FBF1F03A908148008890FBF1F2BB
:1008C00001FB120039907E48008890FBF1F03890CF
:1008D0007C48008890FBF1F201FB120037907948C8
:1008E000008890FBF1F036907748008890FBF1F299
:1008F00001FB120035907448008890FBF1F03490B1
:100900007248008890FBF1F201FB120033906F48AF
:10091000008890FBF1F032906D48008890FBF1F276
:1009200001FB120031906A48008890FBF1F0309092
:100930006848008890FBF1F201FB12002F90654897
:10094000008890FBF1F02E906348008890FBF1F254
:1009500001FB12002D906048008890FBF1F02C9074
:100960005E48008890FBF1F201FB12002B905B487F
:10097000008890FBF1F02A905948008890FBF1F232
:1009800001FB120029905648008890FBF1F0CDE958
:1009900020BACDE92298CDE92476CDE926542890D5
:1009A000459B449A46994798CDE91C23CDE91E10F2
:1009B000419B409A42994398CDE91823CDE91A10FA
:1009C000DDE93C23DDE93E10CDE91423CDE9161025
:1009D000DDE93823DDE93A10CDE91023CDE9121025
:1009E000DDE93423DDE93610CDE90C23CDE90E1025
:1009F000DDE93023DDE93210CDE90823CDE90A1025
:100A0000DDE92C23DDE92E10CDE90423CDE9061024
:100A100034480368DDE929122B98CDE90203CDE9BA
:100A2000001240F2571230493048289B01F0C6F9B5
:100A30002E492FA001F0B6F9002029490880274946
:100A400008802849086023490880234908801F49F5
:100A500008801F4908801B4908801B4908801749E6
:100A6000088017490880134908801349088041E02D
:100A700072E0000015000020140000202200002079
:100A8000F40100202800002029000020360000206A
:100A9000000000207E0000202400002038000020FC
:100AA00086000020260000203A00002020000020C0
:100AB000340000201E000020320000201C00002016
:100AC000300000201A0000202E0000201800002016
:100AD0002C000020160000202A0000200400002026
:100AE0000800002010000020C8200008C8000020D6
:100AF00025730000194908801949088019490880A0
:100B0000194908801949088019490880194908803D
:100B100019490880194908701AE04FF47A7000F0FA
:100B200060FA00201649086001201649C1F89801B2
:100B30004FF47A7000F055FA012011490860002046
:100B40001049C1F898010D480078401C0B49087005
:100B50000A4800780328E0DBFFF78CBB2000002068
:100B60003400002022000020360000202400002055
:100B700038000020260000203A000020000000205D
:100B80009401234200002342704700BFFEE700BFEC
:100B9000FEE700BFFEE700BFFEE770477047704703
:100BA000704700000CB50020019000906C48006870
:100BB00040F480306A49086000BF6948006800F46A
:100BC000003000900198401C0190009818B90198DD
:100BD000B0F5A06FF1D16248006800F4003010B1A8
:100BE0000120009001E0002000900098012843D1EE
:100BF0005C48006840F010005A49086008460068E8
:100C000020F0030008600846006840F00200086019
:100C10005348406852494860084640684860084662
:100C2000406840F4806048600846406820F47C10CA
:100C300048600846406840F4E8104860084600688C
:100C400040F08070086000BF4548006800F0007008
:100C50000028F9D04248406820F00300404948602D
:100C60000846406840F00200486000BF3C484068C9
:100C700000F00C000828F9D10CBD10B5FFF792FF69
:100C800010BD10B53648006840F0010034490860D6
:100C900008464068344908403149486008460068C1
:100CA000324908402E4908600846006820F4802038
:100CB00008600846406820F4FE0048604FF41F00BA
:100CC0008860FFF7DAFF4FF000602949086010BD27
:100CD00010B5002100200022214B5B6803F00C01BD
:100CE00021B1042906D0082928D107E0214B224C44
:100CF000236027E01F4B204C236023E0184B5B68E8
:100D000003F47010164B5B6803F48032022303EB8C
:100D1000904022B9194B4343174C23600DE0104B10
:100D20005B6803F4003323B1144B4343124C23603C
:100D300003E0104B4343104C236003E00D4B0E4C7B
:100D4000236000BF00BF064B5B68C3F303130C4C6A
:100D5000E15C094B1B68CB40074C236010BD0000D1
:100D600000100240002002400000FFF8FFFFF6FEE6
:100D700008ED00E000127A009000002000093D001C
:100D80009400002008B50121482000F0A1FD20209A
:100D9000ADF8000010208DF8030003208DF802004C
:100DA0006946094800F0D8FA2021074800F081FB85
:100DB0004020ADF800006946034800F0CDFA40211C
:100DC000014800F076FB08BD0018014010B540F264
:100DD00025515F4800F0A0FF80B15D4800F01CFF86
:100DE000C4B25C480078402808DA5B485949097861
:100DF000445458480078401C5649087010BD10B53E
:100E000086B004460121242000F062FD012148043F
:100E100000F06BFD8020ADF8140010208DF8170055
:100E200003208DF8160005A94C4800F095FA04201F
:100E3000ADF8140018208DF8170005A9484800F0F7
:100E40008BFA0820ADF8140004208DF8170005A9CE
:100E5000434800F081FA0121480400F060FD0021C0
:100E60004FF4003000F05BFD01940020ADF8080065
:100E7000ADF80A00ADF80C00ADF810000C20ADF88C
:100E80000E0001A9324800F0CAFD26208DF80000AE
:100E900003208DF801008DF8020001208DF8030079
:100EA000684600F090F9012240F22551284800F0F0
:100EB0004EFE0121264800F03EFE00202949086030
:100EC00006B010BD70B505460E46012025490860E4
:100ED00000240CE000BF40211D4800F007FF00285F
:100EE000F9D0295D1A4800F093FE601CC4B2B442E8
:100EF000F0DB00BF4021164800F0F8FE0028F9D0D2
:100F00000020144908701749086070BD2DE9F041B0
:100F100007460D460F4806780024002028700A2056
:100F200000F05FF80B48007886420FD176B100BF21
:100F300004E00948005D3855601CC4B2B442F8DBD7
:100F4000044800782870002002490870BDE8F0814C
:100F500000440040A4000020F401002000140140DF
:100F6000000801409C81224210B56FF0040000F09F
:100F700074F92E4800682E49B0FBF1F02D49087035
:100F80000846007800EB4001C1EBC0104FF6FF713E
:100F900001EAC0002849088010BD0146254A1278A0
:100FA0004A434FF0E0235A6100229A611A461269BF
:100FB00042F001021A6100BF4FF0E022106900F018
:100FC00001021AB100F48032002AF5D04FF0E0227D
:100FD000126922F001024FF0E0231A6100229A61A7
:100FE00070470146144A12884A434FF0E0235A6181
:100FF00000229A611A46126942F001021A6100BF8A
:101000004FF0E022106900F001021AB100F48032C2
:10101000002AF5D04FF0E022126922F001024FF0D1
:10102000E0231A6100229A617047000090000020BE
:1010300000127A00A6000020A8000020014600BF90
:10104000704700BF494A128802F04002002AF9D0D6
:10105000C2B2464B1B1D1A80704710B586B00446BD
:10106000012144F2040000F033FC4FF40070ADF8AD
:10107000140003208DF8160018208DF8170005A91C
:101080003B4800F069F94FF48060ADF8140004208B
:101090008DF8170005A9364800F05EF925208DF877
:1010A000000003208DF801008DF8020001208DF86A
:1010B0000300684600F087F801940020ADF80800AE
:1010C000ADF80A00ADF80C00ADF810000C20ADF83A
:1010D0000E0001A9254800F0A2FC012240F2255192
:1010E000224800F034FD0121204800F024FD06B024
:1010F00010BD10B540F225511C4800F00DFE10B394
:101100001A4800F089FDC4B21A48008800F4004073
:10111000C8B91848008800F4804060B10A2C03D098
:1011200000201449088020E01248008840F4004064
:101130001049088019E00D2C06D10E48008840F4B3
:1011400080400C49088010E00A480088C0F30D0078
:1011500009490C5407480088401C06490880084685
:101160000088C72801DD0020088010BD003801403C
:1011700000080140B00000203402002009488047E8
:1011800009480047FEE7FEE7FEE7FEE7FEE7FEE769
:10119000FEE7FEE7FEE7FEE704480549054A064B81
:1011A00070470000830C0008310100086003002034
:1011B00060090020600500206005002031490143DE
:1011C000314A1160704770B5002100230F22C478A6
:1011D00004B32D4C246804F4E064C4F5E064210AEF
:1011E000C1F10403CA40447804FA03F1847814403E
:1011F00021430901254C0678A155047804F01F0508
:101200000124AC4005786D11AD0005F1E025C5F86D
:10121000004109E0047804F01F050124AC401C4D96
:101220000678761145F8264070BD1A4A0A400243F6
:10123000154B1B1F1A60704739B1134A121D1268F3
:101240000243114B1B1D1A6006E00F4A121D126863
:1012500082430D4B1B1D1A607047042808D14FF0C4
:10126000E021096941F004014FF0E022116107E03B
:101270004FF0E021096921F004014FF0E0221161F3
:10128000704700000000FA050CED00E000E400E00B
:1012900080E100E080FFFF1F10B50446CC48844287
:1012A00008D10121042000F02DFB0021042000F0D2
:1012B00029FB46E0C748844208D10121082000F0FC
:1012C00021FB0021082000F01DFB3AE0C2488442C7
:1012D00008D10121102000F015FB0021102000F0A2
:1012E00011FB2EE0BD48844208D10121202000F0EE
:1012F00009FB0021202000F005FB22E0B8488442D1
:1013000008D10121402000F0FDFA0021402000F02A
:10131000F9FA16E0B348844208D10121802000F098
:10132000F1FA0021802000F0EDFA0AE0AE48844294
:1013300007D10121801500F0E5FA0021A01500F089
:10134000E1FA10BD10B50121084600F0DBFA0021DA
:10135000012000F0D7FA10BD2DE9F041024600252A
:101360000026002000230024002791F803C00CF081
:101370000F0591F803C00CF0100CBCF1000F03D066
:1013800091F802C04CEA050591F800C0BCF1000FCD
:1013900031D0146800202BE04FF0010C0CFA00F360
:1013A000B1F800C00CEA03069E4220D183004FF042
:1013B0000F0C0CFA03F7BC4305FA03FC4CEA0404D7
:1013C00091F803C0BCF1280F06D14FF0010C0CFAC4
:1013D00000FCC2F814C00AE091F803C0BCF1480F49
:1013E00005D14FF0010C0CFA00FCC2F810C0401CF3
:1013F0000828D1D31460B1F800C0BCF1FF0F34DD70
:10140000546800202EE000F1080C4FF0010808FAA3
:101410000CF3B1F800C00CEA03069E4221D1830010
:101420004FF00F0C0CFA03F7BC4305FA03FC4CEA2F
:10143000040491F803C0BCF1280F05D100F1080C99
:1014400008FA0CF8C2F8148091F803C0BCF1480FF8
:1014500007D100F1080C4FF0010808FA0CF8C2F8A7
:101460001080401C0828CED35460BDE8F0814FF6B0
:10147000FF710180022181700421C1707047024612
:10148000002093680B400BB1012000E00020704762
:101490000146886880B2704702460020D3680B403E
:1014A0000BB1012000E0002070470146C86880B2FF
:1014B000704701617047416170470AB1016100E006
:1014C00041617047C16070474FF480320A438261C6
:1014D0008161826182698269704702460020434BC4
:1014E00018684FF68073184040EA021008433F4BDB
:1014F000186070473E49C8617047F0B50A4600233E
:1015000000240021002500F00046B6F1004F02D172
:10151000364EF16901E0354E7168C0F3034583B280
:1015200000F44016B6F5401F08D121F070612F4E2F
:10153000766826F070662D4F7E6012E000F480160B
:10154000B6F5801F06D1032606FA05F4A14341F043
:10155000706106E0460D360103FA06F6B14341F02C
:10156000706122B1460D360103FA06F6314300F0F0
:101570000046B6F1004F02D11C4EF16101E01B4E56
:101580007160F0BD30B500228B071C0F0F2303FAEA
:1015900004F2164B08338C1053F824309343134C49
:1015A00008348D1044F8253023468C1053F824302D
:1015B0008C07240F00FA04F423430C4C08348D10DC
:1015C00044F8253030BD0A49DC310860704700001E
:1015D00000080140000C01400010014000140140CF
:1015E00000180140001C01400020014000000140A3
:1015F00000002042DF48006840F00100DD4908603B
:1016000008464068DC490840DA49486008460068F6
:10161000DA490840D74908600846006820F480206D
:1016200008600846406820F4FE0048604FF41F0040
:1016300088607047CF49096821F48031CD4A116034
:101640001146096821F480211160B0F5803F03D074
:10165000B0F5802F0ED106E0C649096841F480310B
:10166000C44A116007E0C349096841F4A021C14A96
:10167000116000E000BF00BF704710B501460022B6
:10168000002300204A11012A02D1BA4C236806E047
:10169000022A02D1B74C236A01E0B64C636A01F01A
:1016A0001F02012494401C400CB1012000E00020E6
:1016B00010BD38B5002000900024002500BF312067
:1016C000FFF7DBFF05460098401C00900098B0F53E
:1016D000A06F01D0002DF2D03120FFF7CEFF08B16E
:1016E000012400E00024204638BD01460020A14A24
:1016F000106820F0F80040EAC10010607047A0496F
:1017000008607047024600209A4B586820F47C100D
:1017100042EA01031843974B58607047984908669E
:10172000704701460020934A506820F003000843A8
:10173000506070478F48406800F00C0070470146C9
:1017400000208C4A506820F0F00008435060704739
:1017500001460020874A506820F4E060084350604A
:10176000704701460020834A506820F4605040EAE8
:10177000C1005060704729B17E4A527A02437D4BC6
:101780005A7204E07B4A527A82437A4B5A7270470B
:101790007B49D8310860704701460020754A50687F
:1017A00020F440400843506070470021714A2032C5
:1017B0001170704A82F82010012802D004280AD142
:1017C00004E001216B4A2032117005E00521694ACD
:1017D0002032117000E000BF00BF70476949086007
:1017E00070476449096A0143624A1162704765495A
:1017F00044390860704730B50021002200240023DE
:101800005C4D6D6805F00C0121B1042905D0082953
:1018100023D105E05C4D056022E05B4D05601FE0D3
:10182000544D6D6805F47012524D6D6805F48034A6
:10183000022505EB92421CB9544D554305600BE05F
:101840004C4D6D6805F400351DB1504D5543056094
:1018500002E04D4D5543056002E04B4D056000BF71
:1018600000BF444D6D6805F0F0010909484D6B5CFF
:101870000568DD4045603F4D6D6805F4E061090A8B
:10188000434D6B5C4568DD4085603A4D6D6805F4FD
:101890006051C90A3E4D6B5C4568DD40C560354D01
:1018A0006D6805F44041890B3A4D6B5CC568B5FB2A
:1018B000F3F5056130BD29B12E4A526902432D4B23
:1018C0005A6104E02B4A526982432A4B5A6170479D
:1018D00029B1284A92690243264B9A6104E0254ABD
:1018E00092698243234B9A61704729B1214AD26998
:1018F0000243204BDA6104E01E4AD26982431D4B49
:10190000DA61704729B11B4AD2680243194BDA6089
:1019100004E0184AD2688243164BDA60704729B156
:10192000144A12690243134B1A6104E0114A126906
:101930008243104B1A617047124940390860704762
:101940000F49C86470470B49C87170470948406A1D
:1019500040F0807007494862704701460020054A00
:1019600092680A400AB1012000E000207047014956
:1019700088727047001002400000FFF8FFFFF6FE7B
:10198000000042428004424200127A0000093D00F9
:10199000B2000020C200002010B50446FB4884427B
:1019A00009D101218803FFF7ADFF00214FF48040EA
:1019B000FFF7A8FF32E0F648844209D1012148042C
:1019C000FFF7ADFF00214FF40030FFF7A8FF25E03F
:1019D000F048844209D101218804FFF7A0FF0021CB
:1019E0004FF48020FFF79BFF18E0EB48844209D1B9
:1019F0000121C804FFF793FF00214FF40020FFF7F7
:101A00008EFF0BE0E548844208D101210805FFF76D
:101A100086FF00214FF48010FFF781FF10BD2DE9F4
:101A2000F04786B005460E460024A24600BFA146F8
:101A30000027B08900B100BF2F462C8A4CF6FF70FA
:101A40000440F08804432C82AC894EF6F310044025
:101A5000B08831890843718908430443AC81AC8A5A
:101A60004FF6FF400440B0890443AC8201A8FFF761
:101A7000C2FEC648874202D1DDF810A001E0DDF8C1
:101A80000CA0A88900F4004040B10AEBCA0000EBAA
:101A90000A1031684900B0FBF1F807E00AEBCA0010
:101AA00000EB0A1031688900B0FBF1F86420B8FB44
:101AB000F0F004012009642101FB1089A88900F4D9
:101AC000004040B1322000EBC900B0FBF1F000F063
:101AD0000700044308E0322000EB09106421B0FB4A
:101AE000F1F000F00F0004432C8106B0BDE8F08750
:101AF0004FF41651016000218180C18001810C21C9
:101B0000418100218181704710B502460020108A72
:101B10004FF2FF0318400B884C8823438C882343E3
:101B2000CC8823431843108210BD002101804180DE
:101B30008180C180704721B1828942F40052828144
:101B400004E082894DF6FF731A4082817047F0B538
:101B50000346002400260025002040F66A17B942FB
:101B600000D100BF1846C1F3421401F01F0601273F
:101B700007FA06F5012C01D10C3004E0022C01D14A
:101B8000103000E014301AB107682F43076002E0FC
:101B90000768AF430760F0BD1AB1838A0B438382A5
:101BA00002E0838A8B4383827047028A4FF6F07388
:101BB0001A400282028A0A430282704782894FF2E7
:101BC000FF731A40828182890A438281704721B162
:101BD000828942F00202828104E082894FF6FD731D
:101BE0001A4082817047028A4FF6DF731A400282E0
:101BF000028A0A430282704721B1028A42F480427B
:101C0000028204E0028A4BF6FF731A400282704798
:101C1000C1F308028280704701468888C0F308003B
:101C20007047818941F0010181817047028BD2B2F6
:101C30000283028B42EA012202837047028B02F484
:101C40007F420283028B0A430283704721B1828A5A
:101C500042F02002828204E0828A4FF6DF731A404B
:101C60008282704721B1828A42F01002828204E0AF
:101C7000828A4FF6EF731A408282704721B1828ABE
:101C800042F00802828204E0828A4FF6F7731A401B
:101C90008282704721B1828942F40042828103E04E
:101CA0008289C2F30E028281704721B1828A42F496
:101CB0000062828204E0828A4FF2FF731A408282BD
:101CC0007047828A4FF6FB731A408282828A0A43E7
:101CD0008282704721B1828A42F00202828204E04D
:101CE000828A4FF6FD731A408282704702460020B6
:101CF000B1F5007F00D100BF13880B400BB101206C
:101D000000E00020704701F40072B2F5007F00D1BE
:101D100000BFCA430280704770B50246002400230A
:101D20000025002040F66A16B14200D100BFC1F381
:101D3000421501F01F03012606FA03F3012D02D11B
:101D40009689334006E0022D02D1168A334001E025
:101D5000968A33400C12012606FA04F416883440A1
:101D600013B10CB1012000E0002070BD10B50022BD
:101D7000002340F66A14A14200D100BF0A120124D8
:101D80009440A3B2DC43048010BD00000038014041
:101D90000044004000480040004C0040005000401B
:101DA000704700000FB4044910B503AA029800F070
:101DB00045F910BC5DF814FBAC0000200FB41CB555
:101DC000074B06AA7B4469460090059800F007F986
:101DD0000020694600F016F91CBC5DF814FB0000F9
:101DE0003D0200002DE9F0410E460446002020622D
:101DF0002046E168884730B3252805D0D4E9012181
:101E00009047206A401CF2E7E16820460027884797
:101E1000050018D0A5F14100192802D820354FF44B
:101E200000673246294620462760FEF7BBF940B1DD
:101E3000012804D0F61D26F007060836D8E7361D1F
:101E4000D6E72846DAE7206ABDE8F08170B50C468F
:101E50000546012A05D02878800600D5EA690023C6
:101E600002E0012305E05B1C934202D2E05C002803
:101E7000F9D1A869E618C01AA861286A184428622E
:101E80002846AFF3008004E0D5E9012114F8010BE6
:101E90009047B442F8D32846AFF3008070BD0000ED
:101EA0002DE9F0410646002410687529314616A533
:101EB00010D0AFF30080002802DA404213A507E0FB
:101EC00031688A0701D512A502E0490704D511A59A
:101ED000012401E0AFF3008000210A2206F124076B
:101EE00009E0B0FBF2FCB0FBF2F302FB1C00303067
:101EF00078541846491C0028F3D123462A46304618
:101F0000BDE8F04100F00CB8000000002D0000001A
:101F10002B0000002000000070477047704770479A
:101F20002DE9F0470D4699469246044600F12408F3
:101F30000168880604D5E06921F01001216000E005
:101F40000120A84201DD471B00E00027A1697A19A2
:101F500002EB0900081AA0612078C00602D42046CE
:101F6000AFF30080002608E0D4E901211AF806004A
:101F70009047206A401C761C20624E45F4DB207896
:101F8000C0060AD52046AFF3008006E0D4E901215F
:101F900030209047206A401C2062381EA7F10107BC
:101FA000F4DC07E0D4E9012118F805009047206A25
:101FB000401C2062281EA5F10105F3DC2046AFF38A
:101FC00000802078000602D50220BDE8F0870120BD
:101FD000FBE7000001694A1C02610878704700B500
:101FE0008FB0CDE901310021059105497944CDE952
:101FF000031011466846FFF7F5FE0FB000BD000064
:10200000E5FFFFFF0A6802F8010B0A60704710B590
:10201000436913B1AFF3008001E0FFF717FF012020
:1020200010BD127800F124010A7000224A700122CA
:10203000EDE711684FF0FF32E9E70000074B70B59C
:102040000D467B44FFF7CBFF0446284600F008F816
:1020500010B14FF0FF3070BD204670BDFDEFFFFFA7
:10206000007B00F080007047754600F029F8AE460E
:1020700005006946534620F00700854618B020B594
:10208000FFF78AF8BDE820404FF000064FF0000748
:102090004FF000084FF0000B21F00701AC46ACE810
:1020A000C009ACE8C009ACE8C009ACE8C0098D467D
:1020B00070470446AFF300802046FEF788F8000022
:1020C00000487047FC0200207B22745365726961EE
:1020D0006C4E756D223A222564222C227454656D53
:1020E00070223A25642E25642C227448756D69226D
:1020F0003A25642E25642C22744C69676874223A50
:1021000025642C2274536F696C54656D70303122D4
:102110003A25642E25642C2274536F696C48756DC2
:10212000693031223A25642E25642C2274536F695C
:102130006C54656D703032223A25642E25642C2251
:1021400074536F696C48756D693032223A25642E7C
:1021500025642C2274536F696C54656D7030332282
:102160003A25642E25642C2274536F696C48756D72
:10217000693033223A25642E25642C2274536F690A
:102180006C54656D703034223A25642E25642C22FF
:1021900074536F696C48756D693034223A25642E2A
:1021A00025642C2274536F696C54656D7030352230
:1021B0003A25642E25642C2274536F696C48756D22
:1021C000693035223A25642E25642C2274536F69B8
:1021D0006C54656D703036223A25642E25642C22AD
:1021E00074536F696C48756D693036223A25642ED8
:1021F00025642C2274536F696C54656D70303722DE
:102200003A25642E25642C2274536F696C48756DD1
:10221000693037223A25642E25642C2274536F6965
:102220006C54656D703038223A25642E25642C225A
:1022300074536F696C48756D693038223A25642E85
:1022400025642C2274536F696C54656D703039228B
:102250003A25642E25642C2274536F696C48756D81
:10226000693039223A25642E25642C7D0000000057
:102270009022000800000020C80000006C01000847
:1022800058230008C80000209808000088010008B2
:10229000000000000000000000000000000000003E
:1022A000000000000000000000000000000000002E
:1022B000000000000000000000000000000000001E
:1022C000000000000000000000000000010301F415
:1022D000000804020000020300000002C4380303E7
:1022E000000400028428040300040002859F050303
:1022F00000040002844E060300040002847D0703EC
:102300000004000285AC08030004000285530903A1
:102310000004000284820A030004000284B1000069
:1023200000A24A04000000000000000001020304B3
:10233000060708090000000000000000000000007F
:10234000000000000000010203040102030406076C
:08235000080902040608000060
:0400000508000131BD
:00000001FF
